{"abi":[{"type":"constructor","inputs":[{"name":"_token","type":"address","internalType":"contract IERC20"}],"stateMutability":"nonpayable"},{"type":"function","name":"balances","inputs":[{"name":"","type":"address","internalType":"address"}],"outputs":[{"name":"","type":"uint256","internalType":"uint256"}],"stateMutability":"view"},{"type":"function","name":"deposit","inputs":[{"name":"amount","type":"uint256","internalType":"uint256"},{"name":"tezosRecipient","type":"string","internalType":"string"}],"outputs":[],"stateMutability":"nonpayable"},{"type":"function","name":"getBridged","inputs":[{"name":"to","type":"address","internalType":"address"},{"name":"amount","type":"uint256","internalType":"uint256"}],"outputs":[],"stateMutability":"nonpayable"},{"type":"function","name":"owner","inputs":[],"outputs":[{"name":"","type":"address","internalType":"address"}],"stateMutability":"view"},{"type":"function","name":"renounceOwnership","inputs":[],"outputs":[],"stateMutability":"nonpayable"},{"type":"function","name":"token","inputs":[],"outputs":[{"name":"","type":"address","internalType":"contract IERC20"}],"stateMutability":"view"},{"type":"function","name":"transferOwnership","inputs":[{"name":"newOwner","type":"address","internalType":"address"}],"outputs":[],"stateMutability":"nonpayable"},{"type":"function","name":"withdraw","inputs":[{"name":"amount","type":"uint256","internalType":"uint256"}],"outputs":[],"stateMutability":"nonpayable"},{"type":"event","name":"Bridged","inputs":[{"name":"to","type":"address","indexed":true,"internalType":"address"},{"name":"amount","type":"uint256","indexed":false,"internalType":"uint256"}],"anonymous":false},{"type":"event","name":"Deposited","inputs":[{"name":"from","type":"address","indexed":true,"internalType":"address"},{"name":"tezosRecipient","type":"string","indexed":false,"internalType":"string"},{"name":"amount","type":"uint256","indexed":false,"internalType":"uint256"}],"anonymous":false},{"type":"event","name":"OwnershipTransferred","inputs":[{"name":"previousOwner","type":"address","indexed":true,"internalType":"address"},{"name":"newOwner","type":"address","indexed":true,"internalType":"address"}],"anonymous":false},{"type":"event","name":"Withdrawn","inputs":[{"name":"to","type":"address","indexed":true,"internalType":"address"},{"name":"amount","type":"uint256","indexed":false,"internalType":"uint256"}],"anonymous":false},{"type":"error","name":"OwnableInvalidOwner","inputs":[{"name":"owner","type":"address","internalType":"address"}]},{"type":"error","name":"OwnableUnauthorizedAccount","inputs":[{"name":"account","type":"address","internalType":"address"}]},{"type":"error","name":"SafeERC20FailedOperation","inputs":[{"name":"token","type":"address","internalType":"address"}]}],"bytecode":{"object":"0x608060405234801561000f575f5ffd5b5060405161083b38038061083b83398101604081905261002e916100d1565b338061005357604051631e4fbdf760e01b81525f600482015260240160405180910390fd5b61005c81610082565b50600180546001600160a01b0319166001600160a01b03929092169190911790556100fe565b5f80546001600160a01b038381166001600160a01b0319831681178455604051919092169283917f8be0079c531659141344cd1fd0a4f28419497f9722a3daafe3b4186f6b6457e09190a35050565b5f602082840312156100e1575f5ffd5b81516001600160a01b03811681146100f7575f5ffd5b9392505050565b6107308061010b5f395ff3fe608060405234801561000f575f5ffd5b5060043610610085575f3560e01c80638da5cb5b116100585780638da5cb5b146100eb578063f1215d251461010f578063f2fde38b14610122578063fc0c546a14610135575f5ffd5b806327e235e3146100895780632e1a7d4d146100bb5780634680b201146100d0578063715018a6146100e3575b5f5ffd5b6100a861009736600461056b565b60026020525f908152604090205481565b6040519081526020015b60405180910390f35b6100ce6100c936600461058b565b610148565b005b6100ce6100de3660046105a2565b610254565b6100ce6102d9565b5f546001600160a01b03165b6040516001600160a01b0390911681526020016100b2565b6100ce61011d3660046105ca565b6102ec565b6100ce61013036600461056b565b610389565b6001546100f7906001600160a01b031681565b5f81116101705760405162461bcd60e51b815260040161016790610641565b60405180910390fd5b335f908152600260205260409020548111156101e25760405162461bcd60e51b815260206004820152602b60248201527f536f6c646520766572726f75696c6c6520696e737566666973616e7420706f7560448201526a72206c276164726573736560a81b6064820152608401610167565b335f9081526002602052604081208054839290610200908490610697565b909155505060015461021c906001600160a01b031633836103c6565b60405181815233907f7084f5476618d8e60b11ef0d7d3f06914655adb8793e28ff7f018d4c76d505d59060200160405180910390a250565b61025c61042a565b5f811161027b5760405162461bcd60e51b815260040161016790610641565b600154610292906001600160a01b031683836103c6565b816001600160a01b03167f48b87fc02925b37a6aefac60c14fa9d8e9988d7dfadf262d4bd845872ca40730826040516102cd91815260200190565b60405180910390a25050565b6102e161042a565b6102ea5f610456565b565b5f831161030b5760405162461bcd60e51b815260040161016790610641565b600154610323906001600160a01b03163330866104a5565b335f90815260026020526040812080548592906103419084906106b0565b909155505060405133907ffd4bdef056842e4615d2a093647094c0b9bf67c63662d614d63fefd617e0add29061037c908590859088906106c3565b60405180910390a2505050565b61039161042a565b6001600160a01b0381166103ba57604051631e4fbdf760e01b81525f6004820152602401610167565b6103c381610456565b50565b6040516001600160a01b0383811660248301526044820183905261042591859182169063a9059cbb906064015b604051602081830303815290604052915060e01b6020820180516001600160e01b0383818316178352505050506104e4565b505050565b5f546001600160a01b031633146102ea5760405163118cdaa760e01b8152336004820152602401610167565b5f80546001600160a01b038381166001600160a01b0319831681178455604051919092169283917f8be0079c531659141344cd1fd0a4f28419497f9722a3daafe3b4186f6b6457e09190a35050565b6040516001600160a01b0384811660248301528381166044830152606482018390526104de9186918216906323b872dd906084016103f3565b50505050565b5f5f60205f8451602086015f885af180610503576040513d5f823e3d81fd5b50505f513d9150811561051a578060011415610527565b6001600160a01b0384163b155b156104de57604051635274afe760e01b81526001600160a01b0385166004820152602401610167565b80356001600160a01b0381168114610566575f5ffd5b919050565b5f6020828403121561057b575f5ffd5b61058482610550565b9392505050565b5f6020828403121561059b575f5ffd5b5035919050565b5f5f604083850312156105b3575f5ffd5b6105bc83610550565b946020939093013593505050565b5f5f5f604084860312156105dc575f5ffd5b83359250602084013567ffffffffffffffff8111156105f9575f5ffd5b8401601f81018613610609575f5ffd5b803567ffffffffffffffff81111561061f575f5ffd5b866020828401011115610630575f5ffd5b939660209190910195509293505050565b60208082526022908201527f4c65206d6f6e74616e7420646f69742065747265207375706572696575722061604082015261020360f41b606082015260800190565b634e487b7160e01b5f52601160045260245ffd5b818103818111156106aa576106aa610683565b92915050565b808201808211156106aa576106aa610683565b60408152826040820152828460608301375f606084830101525f6060601f19601f860116830101905082602083015294935050505056fea264697066735822122083377f022fadaa2bb16cc2cd8cca6ac11b871fa543b8fe992bacb723ca9d553764736f6c634300081c0033","linkReferences":{}},"methodIdentifiers":{"balances(address)":"27e235e3","deposit(uint256,string)":"f1215d25","getBridged(address,uint256)":"4680b201","owner()":"8da5cb5b","renounceOwnership()":"715018a6","token()":"fc0c546a","transferOwnership(address)":"f2fde38b","withdraw(uint256)":"2e1a7d4d"},"id":8}