{"abi":[{"type":"constructor","inputs":[{"name":"_token","type":"address","internalType":"contract IERC20"}],"stateMutability":"nonpayable"},{"type":"function","name":"deposit","inputs":[{"name":"amount","type":"uint256","internalType":"uint256"},{"name":"tezosRecipient","type":"string","internalType":"string"}],"outputs":[],"stateMutability":"nonpayable"},{"type":"function","name":"owner","inputs":[],"outputs":[{"name":"","type":"address","internalType":"address"}],"stateMutability":"view"},{"type":"function","name":"renounceOwnership","inputs":[],"outputs":[],"stateMutability":"nonpayable"},{"type":"function","name":"token","inputs":[],"outputs":[{"name":"","type":"address","internalType":"contract IERC20"}],"stateMutability":"view"},{"type":"function","name":"transferOwnership","inputs":[{"name":"newOwner","type":"address","internalType":"address"}],"outputs":[],"stateMutability":"nonpayable"},{"type":"function","name":"withdraw","inputs":[{"name":"to","type":"address","internalType":"address"},{"name":"amount","type":"uint256","internalType":"uint256"}],"outputs":[],"stateMutability":"nonpayable"},{"type":"event","name":"Deposited","inputs":[{"name":"from","type":"address","indexed":true,"internalType":"address"},{"name":"tezosRecipient","type":"string","indexed":false,"internalType":"string"},{"name":"amount","type":"uint256","indexed":false,"internalType":"uint256"}],"anonymous":false},{"type":"event","name":"OwnershipTransferred","inputs":[{"name":"previousOwner","type":"address","indexed":true,"internalType":"address"},{"name":"newOwner","type":"address","indexed":true,"internalType":"address"}],"anonymous":false},{"type":"event","name":"Withdrawn","inputs":[{"name":"to","type":"address","indexed":true,"internalType":"address"},{"name":"amount","type":"uint256","indexed":false,"internalType":"uint256"}],"anonymous":false},{"type":"error","name":"OwnableInvalidOwner","inputs":[{"name":"owner","type":"address","internalType":"address"}]},{"type":"error","name":"OwnableUnauthorizedAccount","inputs":[{"name":"account","type":"address","internalType":"address"}]},{"type":"error","name":"SafeERC20FailedOperation","inputs":[{"name":"token","type":"address","internalType":"address"}]}],"bytecode":{"object":"0x608060405234801561000f575f5ffd5b5060405161073838038061073883398101604081905261002e916100d1565b338061005357604051631e4fbdf760e01b81525f600482015260240160405180910390fd5b61005c81610082565b50600180546001600160a01b0319166001600160a01b03929092169190911790556100fe565b5f80546001600160a01b038381166001600160a01b0319831681178455604051919092169283917f8be0079c531659141344cd1fd0a4f28419497f9722a3daafe3b4186f6b6457e09190a35050565b5f602082840312156100e1575f5ffd5b81516001600160a01b03811681146100f7575f5ffd5b9392505050565b61062d8061010b5f395ff3fe608060405234801561000f575f5ffd5b5060043610610060575f3560e01c8063715018a6146100645780638da5cb5b1461006e578063f1215d2514610096578063f2fde38b146100a9578063f3fef3a3146100bc578063fc0c546a146100cf575b5f5ffd5b61006c6100e2565b005b5f546001600160a01b03165b6040516001600160a01b03909116815260200160405180910390f35b61006c6100a436600461048d565b6100f5565b61006c6100b736600461051f565b61017f565b61006c6100ca36600461053f565b6101bc565b60015461007a906001600160a01b031681565b6100ea610303565b6100f35f61032f565b565b5f831161011d5760405162461bcd60e51b815260040161011490610567565b60405180910390fd5b600154610135906001600160a01b031633308661037e565b336001600160a01b03167ffd4bdef056842e4615d2a093647094c0b9bf67c63662d614d63fefd617e0add2838386604051610172939291906105a9565b60405180910390a2505050565b610187610303565b6001600160a01b0381166101b057604051631e4fbdf760e01b81525f6004820152602401610114565b6101b98161032f565b50565b6101c4610303565b5f81116101e35760405162461bcd60e51b815260040161011490610567565b6001546040516370a0823160e01b815230600482015282916001600160a01b0316906370a0823190602401602060405180830381865afa158015610229573d5f5f3e3d5ffd5b505050506040513d601f19601f8201168201806040525081019061024d91906105e0565b10156102a55760405162461bcd60e51b815260206004820152602160248201527f536f6c646520696e737566666973616e742064616e73206c6520636f6e7472616044820152601d60fa1b6064820152608401610114565b6001546102bc906001600160a01b031683836103eb565b816001600160a01b03167f7084f5476618d8e60b11ef0d7d3f06914655adb8793e28ff7f018d4c76d505d5826040516102f791815260200190565b60405180910390a25050565b5f546001600160a01b031633146100f35760405163118cdaa760e01b8152336004820152602401610114565b5f80546001600160a01b038381166001600160a01b0319831681178455604051919092169283917f8be0079c531659141344cd1fd0a4f28419497f9722a3daafe3b4186f6b6457e09190a35050565b6040516001600160a01b0384811660248301528381166044830152606482018390526103e59186918216906323b872dd906084015b604051602081830303815290604052915060e01b6020820180516001600160e01b038381831617835250505050610421565b50505050565b6040516001600160a01b0383811660248301526044820183905261041c91859182169063a9059cbb906064016103b3565b505050565b5f5f60205f8451602086015f885af180610440576040513d5f823e3d81fd5b50505f513d91508115610457578060011415610464565b6001600160a01b0384163b155b156103e557604051635274afe760e01b81526001600160a01b0385166004820152602401610114565b5f5f5f6040848603121561049f575f5ffd5b83359250602084013567ffffffffffffffff8111156104bc575f5ffd5b8401601f810186136104cc575f5ffd5b803567ffffffffffffffff8111156104e2575f5ffd5b8660208284010111156104f3575f5ffd5b939660209190910195509293505050565b80356001600160a01b038116811461051a575f5ffd5b919050565b5f6020828403121561052f575f5ffd5b61053882610504565b9392505050565b5f5f60408385031215610550575f5ffd5b61055983610504565b946020939093013593505050565b60208082526022908201527f4c65206d6f6e74616e7420646f69742065747265207375706572696575722061604082015261020360f41b606082015260800190565b60408152826040820152828460608301375f606084830101525f6060601f19601f8601168301019050826020830152949350505050565b5f602082840312156105f0575f5ffd5b505191905056fea26469706673582212201081839438197bbf5ea4a97c37fb067760e65e1c74ce0ae4e1f6d29f343985e264736f6c634300081c0033","linkReferences":{}},"methodIdentifiers":{"deposit(uint256,string)":"f1215d25","owner()":"8da5cb5b","renounceOwnership()":"715018a6","token()":"fc0c546a","transferOwnership(address)":"f2fde38b","withdraw(address,uint256)":"f3fef3a3"},"id":28}